:020000040000fa
:080000000002040000000000f2
:020000040000fa
:10040000afac20000e7f22000e018800000000002b
:100410000c00070020f0210001002000110007005f
:10042000000020000000e000020032000000020096
:100430000000000044210200000000000040da003b
:100440000000fe004440a900c00d20000000e000b4
:100450000300320000002000a00188004440a800f2
:100460000000060091018800800078000000eb0089
:1004700015003700e280400032a0b4009101ba00bc
:10048000e280400032a0b4009102ba00e280400055
:1004900032a0b4000002eb00472bde00f507b200eb
:1004a000602ce10004003a000059eb008301e900f0
:1004b000fdff3e00040037006128e100010032002a
:1004c0000082eb00040007001101ba000200e00006
:1004d000e8ff3a00000006003159ba008301e90044
:1004e0000c0032002159ba008301e90008003200f3
:1004f0000400e00003003a00e280400032a0b400b3
:10050000f5ff370011d9ba008301e900faff3a007c
:100510008100e800e180400032a0b4000000060045
:1005200000000000000000000040da000000fe00b3
:100530000a00fa0080017800e20f500028003e0017
:1005400040568000e10f5000080032008023200058
:100550000000e000050032000423200025232000d5
:100560004623200080017800040037000422200088
:1005700025222000462220008322200014409000e3
:100580000004e000040035008009eb0014409000f6
:100590000074a00010429800154090000028a300ad
:1005a00003003a00154090000024a00090429800fb
:1005b0008001eb0007003700154090000008a30001
:1005c000fdff320063c078000000fb00000b7800e4
:1005d0008301e800828f5100f7ff3a0008003700de
:1005e00030002000b0bf9f00c3bf9f00d1bf9f005d
:1005f000e2bf9f006a80570000c0da006fb9970021
:10060000020078000080fa0000000600881f7800d1
:10061000000478005001be004000be00040040000d
:10062000858048000601490087814900009cbe0082
:100630000294be000400e1000588e1000690e1009c
:100640000798e10002003100680044001008e8004b
:100650004f04780000000600f4874700889fbe0022
:100660008a9fbe008c9fbe008e1f78000205be00d0
:100670000004be00d4b79f00e5b79f00f6b79f0007
:1006800087bf9f000000eb00c0b79f00b0b79f007e
:10069000a0b79f0090b79f0080b79f000d04200077
:1006a000bfb097004fb09700000140000000e0008d
:1006b0000f003d004f08de0000007100c0b79f0032
:1006c0009e00070001003d0012002000a10007006d
:1006d00001003d0012002000a6000700b100070045
:1006e000b60007000f004000c8ff070022003700d7
:1006f0004f08de0000067100ccb79f008f00070096
:1007000001003d00120020009200070001003d00a2
:100710001200200097000700a20007000fb2970008
:100720009fb297002fb39700bfb39700a9000700af
:100730000000520081805a0002015b0083815b004f
:1007400080b79f0091b79f00a2b79f00b3b79f00eb
:100750000007eb009f0007000020e10001a8e10076
:1007600002b0e10003b8e100010031001e002000ea
:100770000e005600c0b79f004fb297000400e00083
:100780000700350010002000010020006011b800b3
:1007900008047000898470000a0571008b8571005f
:1007a0008d06e900beff3a000400e00003003d00b2
:1007b000820007000f00400094ff07004fa8970039
:1007c0000000e00004003a000fb497009fb49700c7
:1007d0002fb59700bfb59700940007004f0778002a
:1007e0004f06be004f05be004f04be004f01b100d2
:1007f00000000600881f780018002000881f78007d
:1008000095ff07008f87e9004f047800000006007d
:10081000801feb0090ff07008f87e90000000600b3
:10082000889fbe008a9fbe008c1f78006e00070064
:1008300007003d0073000700e00f5b00e08f5b00e6
:1008400007003d00320007000006eb0004003700ff
:100850003400070002003d002a0007001c002000b1
:1008600072000700e3ff07000203be000002be00a3
:100870000c00e00001003200220007000400be006e
:100880000601be004f0678004f05be004f04be00b3
:1008900000000600889fbe008a9fbe008c1f780063
:1008a0005100070005003d0056000700e00f5b0007
:1008b000e08f5b0006003d000400370019000700d0
:1008c00003003d006000b8006011b8001000070090
:1008d00056000700ceff07000203be000002be0064
:1008e0000c00e00001003200060007000400be001a
:1008f0000601be004f0678004f05be004f04be0043
:10090000000006006000b8006011b8000000370069
:10091000040250008582580006035900878359005d
:10092000000006000006eb00e00f5200e08f5a00c6
:10093000e00f5b00e08f5b000000060001804000dc
:1009400090b79f000001eb008fb097000100e0001e
:10095000000006000200700090b79f000180400078
:1009600080b79f000001eb00ffa897000100e000a6
:10097000000006000200700080b79f000180400068
:100980006faa9700cf20de0001007000f0af9f003b
:1009900004024200250007004f18de00000272002a
:1009a00000000600e4af9f000804440089844c0066
:1009b0000a054d008b854d00000006003fb29700f0
:1009c000cfb297005fb39700efb3970000fe2f0000
:1009d000000006003fb09700cfb097005fb19700ce
:1009e000efb19700000006000205be000004be0043
:1009f000e00f5000e08f5800e00f5900e08f5900e1
:100a0000000006006000b8006011b8000804500043
:100a1000898458000a0559008b8559001c00200064
:100a2000e00f5200e08f5a00000006000800be00f0
:100a30000a01be00000006000c00fa00889fbe00fc
:100a400000047800cfb09700f0ff2700d0bf9f00d0
:100a50008004eb0099bf9f0088bf9f00a8bf9f0044
:100a6000200c2000b0bf9f00788157007080570095
:100a7000080007000fb89700094878000fb89700e2
:100a800008045000080078004f04be000080fa00ff
:100a900000000600fe874700889fbe008a9fbe00b8
:100aa0008c9fbe008e1f7800f0b79f000107780072
:100ab00082bf9f000000eb00a0b79f009f0237009d
:100ac0008006eb0050c2b30080cf50000900320016
:100ad0000100fb00ffb09700a3020700e10f4000f8
:100ae00096023200afb097008100e800a1b79f00e6
:100af000920237009e407800d0c2b30080cf5000f1
:100b00000c00320007003c006d40500080cf5000c8
:100b10000a0032006b40400080cf50000e003a00c7
:100b20000800370000c3b30080cf50000a003a002d
:100b3000060037000d30a000050037000d00a000b2
:100b4000030037000d10a000010037000d20a000a9
:100b50000e07e800e7ff37000d18a3000100320080
:100b60000d00a1000d38a300010032000d20a100ee
:100b70000100fb0002fd2f0002004000e90f5000c1
:100b80000e003e000002eb00c4b79f008201780017
:100b9000cfb297006a28b9001e01fb000001410096
:100ba00003014100c2b79f005e00fb00030040004c
:100bb000e90f50000b003e00f5ff37000006eb0088
:100bc000ccb79f00a0c2b30080cf500005003a0010
:100bd0000fb89700c000780080bf9f00c1b79f008a
:100be0000e07e8000001eb00b2b79f00e0c2b300bf
:100bf0009e4f100018003a000de0a0008e00e800a3
:100c000064405000914f100002003200010778004c
:100c10000c0037000fba9700c402780084bf9f0011
:100c2000b5b79f000e87e8000b0037003fb697006e
:100c30006a60b9000000410003004000b0b79f00a7
:100c40000e07e8001e01fb0003fd2f00030041001a
:100c5000e90f5000f5ff3600be407800e1d79f0055
:100c6000c0c6b30080cf5000220032000f003c000d
:100c70006940500080cf50007700320004003c00f3
:100c80000104e000310232006b4050000f003700d9
:100c900040c6b30080cf5000930032006540400052
:100ca00080cf50008b003a008f00370030c7b30070
:100cb00080cf50001a00320007003c006440500012
:100cc00080cf5000110032000040e80080cf50007b
:100cd00080003a000f00370050c7b30080cf5000ab
:100ce000800032006340400080cf500079003a001d
:100cf00009003700000028000d48a30001003a0059
:100d00000001200080867600d3ff37000d60a00030
:100d1000750037000d50a0000d70a0007200370064
:100d20008fb897004100780081bf9f0000047800d1
:100d30000000e00001003a00a89a20008004eb00c7
:100d4000010037008104e800890078000880440031
:100d50001004e000fbff3a003fb197000200e00002
:100d600003003200890f5100010031008204780035
:100d70000002eb00e4af9f00cfb29700898f5200d2
:100d80000200360009805200e0af9f004368de0099
:100d9000e10660001b003a000d06780009003700ec
:100da000ffb0970000022000ef010700e10f4000b4
:100db000030032002fb097000000e800a0b79f00aa
:100dc0000c06e800efa89700810f5600f4ff3a00e8
:100dd0000081eb00e2af9f000a0037008800780036
:100de0003100fb0001047800ffb09700de0107002e
:100df000e10f4000030032002fb297000402e80028
:100e0000a4b79f000900e90080047800e10f4000ca
:100e1000f2ff3a000006eb000d00e0000a003a0085
:100e2000c6013700ffb0970000022000ce01070086
:100e3000e10f400003003200afb297008502e800e6
:100e4000a5b79f000c06e8006fa89700800f56001a
:100e5000f4ff3a00b90137008fb8970041007800dd
:100e600081bf9f00cf80de00010178008201780001
:100e70000205be000004be000203be000002be0068
:100e80004822de00482edd0004027600e4d79f00f1
:100e90000d48a3000a0032000404e00008003200fc
:100ea000e14f42000600320071fd2f000180470033
:100eb00004487800184098002900200002003700fc
:100ec000f0d79f001900200072fd2f000284470018
:100ed000a1ff370064fd2f000484470019002000a3
:100ee0009dff37000d0cb3000d007800000cb20020
:100ef00028003a000d00e00005003d008fba970081
:100f00004505be004504be0085bf9f0014003700a4
:100f10000d48a3000b0032000fbe97004c00be002e
:100f20008cbf9f004f89de00cf91de000002be0023
:100f300002037800820378000605be000404be00a8
:100f4000070037008fb897004100780081bf9f00ed
:100f500000047800cfc4de00090578008a05780017
:100f6000e00f5400e08f5c00e00f5d00e08f5d005b
:100f70001f003d003d00b3006000b8006011b800e4
:100f800008045000898458000a0559008b855900cf
:100f9000170037000d00e00005003d000fb9970075
:100fa0004205be004204be0082bf9f001000370011
:100fb0000d48a300070032000fba97004400be009e
:100fc00084bf9f006011b8000205be000004be008f
:100fd000070037008fba97004500780085bf9f0053
:100fe00000047800090020000a0020000b00200007
:100ff0003fb697000c00e00007003a00e00f5400f5
:10100000e08f5c00e00f5d00e08f5d0002003a00c1
:1010100010002000b0b79f008d007800010cb200d6
:10102000e1b79f0000042000808f500030003200a4
:1010300003003c000100e0000800320040003700df
:10104000000820006fb19700800f5100140032009b
:10105000000c2000800f510039003a0014c0b3008a
:10106000a59020000b0037000400fb004300dd00ca
:10107000050040005001be004000be000040e100fd
:1010800001c8e10002d0e10003d8e1002b003900e3
:101090000442e800f44f5200f3ff3a002700370003
:1010a00000012000010020006011b80014c0b3004e
:1010b0000040e10001c8e10002d0e10003d8e100f6
:1010c0001e003900450020000000d0008180d200c1
:1010d0000281d2008381d2008502e900faff3a0042
:1010e0000442e800f04f5200f1ff3a0013003700cd
:1010f00080002000010020006011b80014c0b3007f
:101100000040e10001c8e10002d0e10003d8e100a5
:101110000a0039003c0020000000d0008180d2008d
:101120000281d2008381d2000c06e900faff3a0066
:101130000442e800f54f5200f1ff3a00e4d79f0067
:10114000efd097000100fb003fb19700820f5000e5
:1011500002003d00e2d79f00040037003fb2970035
:10116000800f520001003d00b0b79f00cfb2970042
:101170000500e000040032006380660002003200d7
:101180008502e900c5b79f000de8a3000b003200ff
:101190004fb697003fb09700800f560003003c0009
:1011a0008000eb00c1b79f00040037004fb19700eb
:1011b0003fb2970004015100c2b79f00efd29700e1
:1011c0000500fb000006eb00dcaf9f00cfb09700ee
:1011d000808f50000200340000805000d0af9f008c
:1011e0000d28a30037003200e18066000d18a3002f
:1011f0000c003200d00220000100e00001003a00a3
:101200000080e900ffb09700d7000700e10f400021
:101210000e0032002fb197000201e800a2b79f0034
:101220000a0037000100e00008003200ffb097001c
:1012300000022000cc000700e10f40000300320054
:101240002fb297000402e800a4b79f00dfaa97001e
:101250000500e0000f0032000006eb00ffb0970031
:1012600000032000c0000700e10f4000030032002f
:101270002fb097000000e800a0b79f000c06e80020
:10128000dfa89700810f5600f4ff3a000001eb0041
:10129000d2af9f003fb29700c320dd002090200016
:1012a0008080400091b79f004220dd006400500024
:1012b00080b79f006320b900f0af9f006306500025
:1012c00084003700dfaa97000500e000110032001b
:1012d000688066000f003a0000067800ffb09700b3
:1012e00000022000a0000700e10f400003003200d0
:1012f0002fb097000000e800a0b79f000c06e800a0
:10130000dfa89700810f5600f4ff3a000001eb00c0
:10131000d2af9f00e18066000d18a3000c003200e0
:10132000d00220000100e00001003a000080e90046
:10133000ffb097008c000700e10f4000d5ff32009e
:101340002fb297000402e800a4b79f00d1ff370036
:101350000100e000cfff3200ffb097000002200044
:1013600081000700e10f4000caff3200afb29700d2
:101370008502e800a5b79f00c6ff370000042000e3
:10138000efb09700808f50003100320003003c0026
:101390000100e000080032003e0037000008200095
:1013a0006fb19700800f510011003200000c200037
:1013b000800f510037003a001fb097003002be0086
:1013c0002003be000800be000a01be0009fd0700a0
:1013d000a4002000050020006033b8000cfd0700c9
:1013e00004c3b30004424000e4d79f002900370043
:1013f000159b2000d5b79f000d58a30002003a00ae
:10140000209c2000d0b79f00140020000500200081
:101410006033b8008fb097008100e9000500330009
:101420000402d0008582d2000683d2008783d200d6
:10143000f9ff37000800be000a01be00edfc0700fe
:101440006f0060005fb197006240780010003700c5
:1014500014002000050020006033b8000c00780064
:101460000000e900050033000402d0008582d200ac
:101470000683d2008783d200f9ff37000800be0040
:101480000a01be00dbfc0700674060000043b000bb
:10149000e0d79f00efd097000100fb00ffb097005e
:1014a00031000700e10f4000030032002fb1970028
:1014b0000201e800a2b79f001fb297006802520025
:1014c00094b79f008fb29700e482520085b79f00c7
:1014d00063065600d0ff2f003fb197000090b9007f
:1014e0007faa97000000420063005000800f560062
:1014f000a2ff3a000d38a30010003200dfaa9700c7
:101500000500e0000d0034000006eb00ffb097007e
:101510000002200014000700e10f40000300320029
:101520002fb097000000e800a0b79f000c06e8006d
:10153000dfa89700810f5600f4ff3a00be40780004
:10154000e1d79f000104e0005dfd3a002fb0970055
:101550004f0778004f06be004f05be004f04be0087
:10156000ef01b10000000600889fbe000001780076
:1015700001047800b10090000118a3003d00320082
:101580000198a30003003a00180090000000e0005a
:1015900038003a000190a0003104980082047800dd
:1015a000f90fb200180090000000e00002003a00bd
:1015b00028009000000c7800ea8f540006003a00e2
:1015c000380090000078a30003003a0088007800fb
:1015d000d0002000e4ff0700980090005800900021
:1015e000808f50000b0032000100e80010049800ca
:1015f0001800780009587800000c780011c0b3007a
:10160000e09f200001487800ea8f54000600320075
:101610001900370088007800094078001900070099
:101620008004780014003700380090000088a30080
:101630001100320018019000a800900048009000ae
:10164000bbfb070098009000810f5000040032009f
:10165000380090000003b300300498008084eb0051
:101660000000eb001004980028009000000c7800a7
:10167000010037008084eb00090078004f04be00b1
:10168000000006000200fa00889fbe00a0ff9f0035
:1016900001047800b1009000810478000904b200d0
:1016a000020032000000fb00360037000118a300e2
:1016b00005003a000103b3003104980019049800b2
:1016c0000080eb002f003700580090000000e00081
:1016d00006003a004800900012002000e680570003
:1016e00093fb07001904980024003700280090009d
:1016f0000000e00008003a00a09f200020049800ad
:10170000000c78002000200050049800100498007d
:101710000130a0003104980018019000a80090004a
:101720004800900082fb070028009000000c780021
:101730000080eb001004980018007800aff89700c4
:1017400001587800000c78002ff89700ea4f5000fd
:101750000a003a00380090000088a3000700320019
:1017600018019000a80090004800900070fb07004e
:1017700019049800a8009000010c7800aff89700b9
:101780000100fb004f04be000080fa0000000600cc
:020000040000fa
:020000040001f9
:0457f00033ff000083
:020000040000fa
:020000040001f9
:0457f400c0fc0000f5
:020000040000fa
:020000040001f9
:0457f8008ebb000064
:020000040000fa
:020000040001f9
:0457fc00603f00000a
:020000040000fa
:100008009402000094020000940200009402000090
:100018009402000094020000940200009402000080
:10002800940200009402000094020000b620000030
:10003800940200009402000094020000f2200000e4
:100048009402000094020000940200009402000050
:1000580094020000f21f00009402000094020000c5
:100068009402000094020000940200009402000030
:100078009402000094020000940200009402000020
:100088009402000094020000940200009402000010
:100098009402000094020000940200009402000000
:1000a80094020000940200009402000094020000f0
:1000b80094020000940200009402000094020000e0
:1000c80094020000940200009402000094020000d0
:1000d80094020000940200009402000094020000c0
:1000e80094020000940200009402000094020000b0
:1000f80094020000940200009402000094020000a0
:10010800940200009402000094020000940200008f
:10011800940200009402000094020000940200007f
:10012800940200009402000094020000940200006f
:10013800940200009402000094020000940200005f
:10014800940200009402000094020000940200004f
:10015800940200009402000094020000940200003f
:10016800940200009402000094020000940200002f
:100178009402000094020000560d00009402000052
:10018800940200009402000094020000940200000f
:1001980094020000940200009402000094020000ff
:1001a80094020000940200009402000094020000ef
:1001b80094020000940200009402000094020000df
:1001c80094020000940200009402000094020000cf
:1001d80094020000940200009402000094020000bf
:1001e80094020000940200009402000094020000af
:0801f8009402000094020000d3
:020000040000fa
:10020800940200009402000094020000940200008e
:10021800940200009402000094020000940200007e
:10022800940200009402000094020000b62000002e
:10023800940200009402000094020000f2200000e2
:10024800940200009402000094020000940200004e
:1002580094020000f21f00009402000094020000c3
:10026800940200009402000094020000940200002e
:10027800940200009402000094020000940200001e
:10028800940200009402000094020000940200000e
:1002980094020000940200009402000094020000fe
:1002a80094020000940200009402000094020000ee
:1002b80094020000940200009402000094020000de
:1002c80094020000940200009402000094020000ce
:1002d80094020000940200009402000094020000be
:1002e80094020000940200009402000094020000ae
:1002f800940200009402000094020000940200009e
:10030800940200009402000094020000940200008d
:10031800940200009402000094020000940200007d
:10032800940200009402000094020000940200006d
:10033800940200009402000094020000940200005d
:10034800940200009402000094020000940200004d
:10035800940200009402000094020000940200003d
:10036800940200009402000094020000940200002d
:100378009402000094020000560d00009402000050
:10038800940200009402000094020000940200000d
:1003980094020000940200009402000094020000fd
:1003a80094020000940200009402000094020000ed
:1003b80094020000940200009402000094020000dd
:1003c80094020000940200009402000094020000cd
:1003d80094020000940200009402000094020000bd
:1003e80094020000940200009402000094020000ad
:0803f8009402000094020000d1
:020000040000fa
:10179000120100000002000002000000000800002a
:1017a000d8040000cdab00000001000001020000e1
:1017b00000010000090200004300000002010000d7
:1017c00000c0000032090000040000000001000019
:1017d00002020000010000000524000000100000cb
:1017e000010400002402000002050000240600009d
:1017f00000010000052400000100000001070000b6
:101800000582000003080000000200000904000037
:1018100001000000020a00000000000000070000b4
:101820000503000002400000000000000705000062
:1018300083020000400000000000000004030000dc
:1018400009040000340300004600000048000000c6
:10185000540000005700000020000000420000007b
:101860004d00000054000000200000004d0000006a
:1018700069000000630000006800000061000000d3
:10188000650000006c00000020000000480000001f
:10189000610000006c0000006c00000065000000aa
:1018a000720000002000000020000000340300004f
:1018b000550000005300000042000000200000001e
:1018c00044000000650000006d0000006f00000093
:1018d000620000006f000000610000007200000064
:1018e00064000000200000004200000069000000c9
:1018f0006f0000004d000000650000006400000063
:101900004c000000610000006200000020000000a8
:1019100020000000da8b00001e8c0000228c0000ea
:10192000568c000025300000346400003b25000088
:1019300030340000643b00002530000034640000b7
:081940003b0d00000a0000004d
:020000040000fa
:101948000200fa009ec0a900f00f20007024880051
:10195800f00f200050248800200020003025880047
:101968000000eb00402588008644a900f00920000b
:1019780080248800f0092000602488008804a800da
:1019880000a020004800de00c02488009424a8009d
:101998000000eb00b02488006000b80060258800d3
:1019a800712588000000eb00802588009424a90098
:1019b8000040eb00004f7800070037001e80fb0056
:1019c800c200dd0000a02000008140006000b800d7
:1019d8000089be001e4fe800f0c0b3009e4f100003
:1019e800f6ff3600d000200050258800020037009e
:1019f80080002000502488008ac4bf00684060002e
:101a08000004e000faff3a000040eb008ce8b70061
:101a18000040eb0097e8b70098c8bf00604060003e
:101a280098e8b70099c8bf006040600099e8b7001f
:101a380094a4a9000040eb00004f78000d00370087
:101a48001e80fb00c189200000004000810040008a
:101a58000000eb00800878001e80fb00a18a2000af
:101a680000004000810040000000eb008008780082
:101a78001e4fe80030c0b3009e4f1000f0ff360044
:101a880081a02000c0892000010878000040eb00f8
:101a980094e8b7000000eb00904488000080fa004a
:101aa800000006003600f800809fbe00829fbe003e
:101ab800849fbe00869fbe003400f800000020000e
:101ac800a00188000200fa0090448000e10f500055
:101ad8000a003a0094c4bf000044b2000004e000c9
:101ae80006003a00f00f2000502488008c04a8005b
:101af8008c84a800200020009044880080c4bf0087
:101b0800704060000004e0000700320082c4bf009b
:101b1800704060000004e000030032000001200073
:101b280000248800a300070088c4bf00624060004a
:101b38000004e000020032008ec0a90073003700e4
:101b48008ac4bf00614060000004e0001800320051
:101b58008cc4bf00614060000004e0001400320043
:101b680077ff07009ec0a80040002000904488002e
:101b7800608c20001050880080c0b30000eab700d5
:101b880011a020009140780030c0b30000c0600070
:101b980001eab70011a0200091407800c0c8b30046
:101ba80000c0700001eab70010002000502488002f
:101bb8008ac4bf00704060000004e00007003200e3
:101bc8008cc4bf00704060000004e00003003200d5
:101bd8006e00070000012000502488008ac4bf005e
:101be800644060000004e0000a0032008cc4bf00ba
:101bf800644060000004e00006003200120020008b
:101c08008000eb0030072000420807004000200059
:101c1800502488008ac4bf0001c8b3000140600096
:101c28000004e000060032008cc4bf0001c8b30005
:101c3800014060000004e000010032003b000700a2
:101c48008ac4bf00624060000004e0000a0032005d
:101c58008cc4bf00624060000004e000060032004f
:101c6800120020008000eb000080eb00290807002c
:101c7800f00f20007024880090448000e30f50008b
:101c880002003e008ec0a900200037008cc4bf00af
:101c9800684060000004e0001b0032000040eb00d8
:101ca800004f7800150037008ac4bf006840600004
:101cb8000004e0001400320090248000b6e8b70069
:101cc8008000200050248800b6c8bf008080fb0038
:101cd800000f2000008060000000e00002003a00d1
:101ce8003e00070004003700618b20000001eb0074
:101cf80020072000070807001e4fe80030c0b30087
:101d08009e4f1000e8ff36008ec0a9000080fa0040
:101d18003400f9004f03be004f02be004f01be0061
:101d28004f00be003600f900004006000000fa002f
:101d3800aac4bf00624060000004e0000f00320047
:101d4800304580009040900000c8b30080cf50001c
:101d580009003a00c08920001000780090409000e7
:101d680040c8b30080cf500003003a0031458000de
:101d7800c0c8b30090409800aa24a9000008200019
:101d8800502488000080fa00000006000000fa00d5
:101d98008284a80000012000502488000001eb0084
:101da8008000eb0050072000da0707000080fa00e7
:101db800000006000000fa000001eb008000eb00c4
:101dc80040072000d30707008284a90000012000f3
:101dd800002488000080fa00000006000200fa00d3
:101de800b6c8bf008080fb00b0ff2f0000806000f5
:101df8000000e00035003a00b6c8bf008080fb0054
:101e0800c00f2000008060004280de004200dd003c
:101e18008000780000a02000008040003045880045
:101e28003045800040458800818a2000808a200053
:101e3800104078000024a2008048780030458000d7
:101e480010409000c2c3b3008240600040c3b3009a
:101e580080cf50001b003a00304580009000900071
:101e6800e08c2000808f500014003a00314580003b
:101e7800608c2000900098000040eb00004f780034
:101e88000b0037001e80fb0080007800608c20006b
:101e9800008140001e80fb0080007800e08c20005c
:101ea8000080400010407800004978001e4fe8008c
:101eb80070c0b3009e4f1000f2ff36000c00070000
:101ec800090037002a00070007003700b6c8bf001e
:101ed8008080fb00b0ff2f0000806000e80f5000fa
:101ee80001003a003a0007000080fa0000000600ee
:101ef8000000fa00c089200010007800904090008f
:101f080000c8b30000c060000004e0000400320014
:101f1800c0892000900078000040eb0090409800b5
:101f28000040eb00b2e8b7000040eb00b3e8b700b0
:101f38008dc8bf00604060008de8b7008ec8bf0044
:101f4800604060008ee8b7000040eb008ce8b70006
:101f58007f0007000001eb008000eb00300020004c
:101f68006c070700150207000080fa000000060051
:101f78000000fa00b3c8bf00e24f500002003a0068
:101f880022030700100037004b000700c0458000ff
:101f98000000e0000a003a004145800080c0b3001c
:101fa8008048780041458000608c200090009800af
:101fb80041458000c0c8b300904098000200370037
:101fc8000000eb00c04588000080fa000000060011
:101fd8000200fa00c089200010007800104090002c
:101fe8000080fb004600de0061406000004f780082
:101ff800c1892000c0892000104078000024a20078
:102008008048780090448000e80f50000b003a00a8
:10201800c8c8bf000080fb00b0248800b02480003e
:102028000000e00003003200000120009044880016
:10203800020037004000200090448800b3c8bf0069
:10204800e14f500019003a00c08920009000780044
:10205800e08c20009000980068020700b2c8bf001a
:10206800e24f500005003a00c08920009000780037
:1020780040c8b300904098000d0037001e04e000ef
:1020880005003a00c08920009000780080ccb30099
:102098009040980006003700c08920009000780022
:1020a80080c8b30090409800010037000200070084
:1020b8000080fa00000006000200fa000040eb0071
:1020c800b3e8b700c0892000900078000040eb001a
:1020d80090409800c0892000100078000020a200dd
:1020e800000f78009e0078000040eb0090409800b8
:1020f800718920009140780000c8b30000c06000da
:102108000004e000100032009ac8bf008080fb0085
:102118009bc8bf000080fb004800dd000100700084
:102128000000e000070032009ac8bf008080fb0072
:102138009bc8bf000080fb004800dd000100700064
:102148000000010097e8a9000080fa0000000600de
:102158000400fa00c6c8bf000046b2000004e00050
:1021680058003a00c7c8bf000080fb006101b900f1
:10217800028fbe00b0002000010020001e01be003a
:10218800800f5100818f59004e003e001e00be0096
:10219800006001002400370025003700490037009f
:1021a80023003700470037000600370009003700d2
:1021b800400037000b003700080037001e003700ca
:1021c800330037008ce8a800800020009044880085
:1021d8003c003700a40007003a0037000a03070054
:1021e8003800370042892000f00f2000800061008d
:1021f8008ac8bf0060406000014070008ae8b700ec
:10220800c810de008bc8bf0060406000014070004d
:102218008be8b7008c08a80010c0b3008de8b700a1
:102228008ce8a800270037000e01070025003700ba
:102238002600070023003700cac8bf000080fb0043
:1022480080007800408a200000804000000178006b
:10225800f00f2000800061008ac8bf006040600065
:10226800014070008ae8b700c810de008bc8bf00c4
:1022780060406000014070008be8b7008c08a8003f
:1022880010c0b3008de8b7008ce8a8000d00370037
:102298008ce8a800cac8bf008080fb00828c2000a0
:1022a80012417800408a20000080400002487800ef
:1022b800040037000001eb008000eb002000200044
:1022c800940607000080fa00000006000400fa00e7
:1022d800c8c8bf00e14f50000d003a00c6c8bf0093
:1022e8007f4060000004e00009003a008ce8a80084
:1022f800c7c8bf00e34f500003003a001000200099
:1023080080448800020037000000eb008044880009
:10231800c8c8bf000004e00051003a00c6c8bf00aa
:102328007f406000e24f50004d003a00cac8bf002d
:102338006f4060000004e000490032008ce8a8000b
:10234800cac8bf0001c8b300014060000004e00033
:1023580009003a00cac8bf006f4060000080fb0057
:10236800a18a200000004000010040001000780011
:102378001007980008003700cac8bf006f40600007
:102388000080fb00c18920000000400001004000df
:102398001000780010079800c7c8bf00e34f50002e
:1023a80004003a009e00900040c8b3009040980096
:1023b8002b003700cac8bf006f4060000080fb00d8
:1023c8000000400080007800a04a20000080400003
:1023d800000f78001e00780090407800d0cfb3003e
:1023e80080c060001e00780001487800a18c2000a1
:1023f8009140780000c8b30000c060000004e0000d
:102408000c0032009e0090000040eb0090409800c5
:102418008e80e8000e80e800104078000024a200ba
:10242800804878009e00900000c4b3009040980057
:102438000b0037009e00900080c8b30090409800c1
:102448008e80e8000e80e800104078000024a2008a
:10245800804878009e00900080ccb300904098009f
:102468000080fa00000006000200fa00618c2000db
:102478009140780000c8b30080cf500077003a0040
:1024880000ccb3008ce8b700c9c8bf000080fb00cf
:10249800000f78001e007800e20f50001b00320089
:1024a8001e007800e30f50003e0032001e00780046
:1024b800e10f5000010032006600370082bc28009e
:1024c800f00f2000800061008ac8bf0060406000f3
:1024d800014070008ae8b700c810de008bc8bf0052
:1024e80060406000014070008be8b7008dc8bf00f5
:1024f800604060002041b3008de8b7008ec8bf007f
:10250800604060008ee8b70054003700c8c8bf00bc
:102518000080fb000000400080007800a0c8280070
:102528000080400010017800f00f2000800061005a
:102538008ac8bf0060406000014070008ae8b700a8
:10254800c810de008bc8bf0060406000014070000a
:102558008be8b7008ac8bf008080fb008bc8bf002b
:102568000080fb004800dd00010070000080e800ea
:1025780010017800f00f2000800061008dc8bf00b6
:1025880060406000014070008de8b700c810de00b0
:102598008ec8bf0060406000014070008ee8b70040
:1025a8002e003700c8c8bf00e24f500026003e008a
:1025b800c8c8bf000080fb00000040008000780011
:1025c800c0c828000080400010017800f00f2000eb
:1025d800800061008ac8bf00604060000140700050
:1025e8008ae8b700c810de008bc8bf0060406000f2
:1025f800014070008be8b7008ac8bf008080fb00ec
:102608008bc8bf000080fb004800dd00010070009f
:10261800104078000081fb00f00f2000800061006e
:102628008dc8bf0060406000014070008de8b700b1
:10263800c810de008ec8bf00604060000140700016
:102648008ee8b700050037000040eb008ce8b700c3
:10265800020037000040eb008ce8b7000080fa0069
:10266800000006000400fa000040eb00cee8b700c6
:102678000040eb00cfe8b700c6c8bf007f4060004d
:102688000080fb00100798001e009000e10f50002a
:10269800120032001e009000e20f500011003200bc
:1026a8001e0090000000e000010032002d003700fd
:1026b8008ce8a800cec8bf000004a000cee8b70090
:1026c80080448000e10f500026003a00cec8bf00c9
:1026d8000014a000cee8b700220037008ce8a8005c
:1026e800200037008ce8a800cac8bf0001c8b300a2
:1026f800014060000004e00009003a00cac8bf00b9
:102708006f4060000080fb00a18a200000004000ac
:102718000100400010007800000f78000800370022
:10272800cac8bf006f4060000080fb00c18920005c
:10273800000040000100400010007800000f780001
:102748001e007800104090000080fb004200de0070
:10275800610060000004e0000200320010c0b30015
:10276800cee8b7008cc8bf0001c8b30001406000c4
:102778000004e0000f003200e28c2000f00f20007f
:10278800800061008ac8bf0060406000014070009e
:102798008ae8b700c810de008bc8bf006040600040
:1027a800014070008be8b7008c08a80020c0b30077
:1027b8008de8b7000080fa00000006000000fa006b
:1027c80094a4a9008cc8bf0001c8b30001406000f0
:1027d8000004e00027003a0097c8bf0001c8b30012
:1027e800014060000004e0001400320020c0b30083
:1027f800b3e8b700c0892000900078000040eb00e3
:1028080080487800c08920009000780080ccb30010
:10281800904098004145800080c0b300804878000f
:1028280041458000e08c20009000980041458000e0
:1028380080ccb300904098006e003700414580007e
:1028480080c0b3008048780041458000608c20003b
:102858009000980041458000c0c8b300904098009f
:10286800c08920009000780040c8b30090409800cc
:102878006000370097c8bf0001c8b300014060007e
:102888000004e0005b003a00c6c8bf0001c8b300fe
:10289800014060000004e00043003200ccc8bf00e3
:1028a8008080fb00cdc8bf000080fb004800dd0031
:1028b80001007000000178008dc8bf008080fb0017
:1028c8008ec8bf000080fb004800dd0001007000da
:1028d800800f510012003100ccc8bf008080fb007f
:1028e800cdc8bf000080fb004800dd00010070007b
:1028f80000017800f00f2000800061008dc8bf0043
:1029080060406000014070008de8b700c810de002c
:102918008ec8bf0060406000014070008ee8b700bc
:102928003600070010c0b300b3e8b7004145800087
:1029380080c0b3008048780041458000608c20004a
:10294800900098004145800000c8b300904098006e
:102958000000eb00c04588003145800080c0b3000e
:102968008048780031458000608c200090009800f5
:102978003145800040c8b300904098001000200006
:10298800c0458800c089200090007800e08c2000b5
:1029980090009800c08920009000780080ccb30097
:1029a800904098001300370020c0b300b3e8b70088
:1029b800c0892000900078000040eb008048780033
:1029c800c08920009000780080ccb3009040980027
:1029d8004145800080c0b3008048780041458000b0
:1029e800e08c2000900098004145800080ccb30026
:1029f800904098000080fa00000006000200fa00eb
:102a08008dc8bf008080fb008ec8bf000080fb001f
:102a18004800dd0001007000e70f500013003e0081
:102a28008dc8bf008080fb008ec8bf000080fb00ff
:102a38004800dd0001007000000f7800b2c8bf0038
:102a48000004e00003003a0010c0b300b2e8b70089
:102a580008003700b2c8bf00e14f500005003a0037
:102a680020c0b300b2e8b7000200370080002000a1
:102a7800000f7800c089200010017800c08920006c
:102a880010007800904090001e40900000c0700038
:102a980010419800c0892000900078001e407800fe
:102aa800804878008dc8bf008080fb008ec8bf00ba
:102ab8000080fb004800dd00010070008000780005
:102ac8001e00780000815000f00f20008000610097
:102ad8008dc8bf0060406000014070008de8b700fd
:102ae800c810de008ec8bf00604060000140700062
:102af8008ee8b700e08c2000a04588008cc8bf0095
:102b0800614060000004e0003b003a001b00370011
:102b1800a24580008ac8bf008080fb008bc8bf0028
:102b28000080fb004800dd00010070008000780094
:102b380011407800004978000200e800a0458800ac
:102b48000101e800f00f2000800061008ac8bf0082
:102b580060406000014070008ae8b700c810de00dd
:102b68008bc8bf0060406000014070008be8b70070
:102b78001e0078000000e900000f78001e007800b1
:102b88000000e000e2ff3a001e003700a245800086
:102b98008ac8bf008080fb008bc8bf000080fb0094
:102ba8004800dd00010070008000780011407800c6
:102bb800004978000200e800a04588000101e8000b
:102bc800f00f2000800061008ac8bf0060406000ec
:102bd800014070008ae8b700c810de008bc8bf004b
:102be80060406000014070008be8b7001e0078006c
:102bf8000000e900000f78001e0078000000e000e7
:102c0800e2ff3a000080fa00000006000200fa0025
:102c18003045800090407800114798001e40900091
:102c28000081fb0098c8bf008080fb0099c8bf00e6
:102c38000080fb004800dd0001007000800f51009b
:102c48000700360098c8bf008080fb0099c8bf0005
:102c58000080fb004800dd0001007000104798006c
:102c680098c8bf008080fb0099c8bf000080fb00a7
:102c78004800dd0001007000800078001e409000d0
:102c88000080fb0000815000f00f200080006100f0
:102c980098c8bf00604060000140700098e8b70025
:102ca800c810de0099c8bf00604060000140700095
:102cb80099e8b7000040eb00004f78001900370092
:102cc80095c8bf008080fb0096c8bf000080fb004d
:102cd8004800dd0001007000000178009e80fb00c4
:102ce800e08c200000804000104078000049780007
:102cf8000201e800f00f20008000610095c8bf00c5
:102d0800604060000140700095e8b700c810de0020
:102d180096c8bf00604060000140700096e8b700a8
:102d28001e4fe8001e4090009e4f1000e4ff39003f
:102d380098c8bf008080fb0099c8bf000080fb00d6
:102d48004800dd00010070000000e00013003200c0
:102d58004145800080c0b30080487800414580002c
:102d6800e08c2000900098003045800010409000d2
:102d78000044b2000004e00004003a00414580002d
:102d880080ccb300904098001d003700414580007a
:102d980080c8b30090409800190037004145800072
:102da80080c0b3008048780041458000608c2000d6
:102db800900098004145800040c8b30090409800ba
:102dc8009ac8bf008080fb009bc8bf000080fb0042
:102dd8004800dd00010070000000e000070032003c
:102de8009ac8bf008080fb009bc8bf000080fb0022
:102df8004800dd00010070000000010097e8a9000c
:102e08000080fa00000006000200fa008ce8a80022
:102e18006000b80060258800712588000000eb007c
:102e2800802588000040eb00004f7800070037003d
:102e38001e80fb00c200dd0000a0200000814000d1
:102e48006000b8000089be001e4fe800f0c0b30063
:102e58009e4f1000f6ff36009424a8000040eb00b7
:102e6800a4e8b7009424a90081a02000c08920000c
:102e78000108780000a02000304588003045800017
:102e880040458800c8c8bf0094e8b70094c8bf0090
:102e98000004e00003003a0000012000904488008c
:102ea8000600370012002000418920001000200091
:102eb8009803070000022000904488000080fa0070
:102ec800000006000400fa002047980031479800e7
:102ed80000a02000000f78002e4090000080fb002a
:102ee80000004000800078003e4090000080fb0019
:102ef800008040004300dd004200de004200dd00ab
:102f08001e0f40009e007800114090000074a10040
:102f1800904098003e4090000004e00007003a000e
:102f28002e4090000080fb00a18a20000000400095
:102f3800010040001e087800060037002e4090006f
:102f48000080fb00c1892000000040000100400013
:102f58001e0878001e01780092409000f0cbb30064
:102f680000c06000104198001e0078006401400015
:102f78009240900000c4b30000c070001041980057
:102f88000080fa00000006000400fa0020479800bc
:102f9800314798002e4090000080fb000000400060
:102fa80080007800a04a200000804000000f7800d0
:102fb8001e007800be409000014878003e40900016
:102fc8000080fb004300de00610060000004e000b8
:102fd800030032008040eb002e409000b9ff07004c
:102fe8003e4090000080fb004200de00610060006f
:102ff8000004e0000300320011c0b3002e4090002e
:10300800b0ff07000080fa00000006000400fa0084
:1030180020479800314798002e4090000004e000b7
:103028000e003a004145800080c0b3008048780017
:1030380041458000608c2000900098004145800048
:10304800c0c8b30090409800c08920009000780064
:1030580040c8b30090409800230037002e409000ed
:103068000080fb0000004000800078003e40900097
:103078000080fb00008040004300dd0080007800f5
:1030880000a0200000804000000f78001e0078009b
:103098009040900040c8b30080c070001e007800c7
:1030a800114098002e4090000080fb000000400076
:1030b800800078003e4090000080fb0000804000c7
:1030c8004300dd008000780040a02000008f400011
:1030d8001e0078009040900040c8b30080c0700087
:1030e8001e007800114098000080fa0000000600d9
:1030f8000a00fa00204798003147980022079800f4
:10310800634798003e4090000004e000070032004a
:103118002e4090000080fb00c18920000000400084
:1031280001004000100f7800060037002e40900084
:103138000080fb00a18a2000000040000100400040
:10314800100f78001e00e00003003a000000eb00ba
:1031580040079800390037002e0090008000780062
:103168001e007800110098001e007800ee409000c4
:10317800014878001e0078001040900002c4b30097
:10318800824060001e007800114098001e00780000
:103198009040900080c8b30080c070001e00780086
:1031a800114098003e4090000004e00011003200f9
:1031b8002e4090000080fb00000040008000780056
:1031c800c089200000804000000178002e40900057
:1031d8000080fb000000400080007800c0892000cb
:1031e80000804000104078000024a20000497800c8
:1031f800100037002e4090000080fb0000004000c7
:1032080080007800a08a200000804000000178003b
:103218002e4090000080fb000000400080007800f5
:10322800a08a200000804000104078000024a200fe
:10323800004978001e007800400798004e00900072
:103248000080fa00000006000600fa00004f78002f
:1032580094c4bf000042b2000004e0005f003200e6
:103268001e80fb00c18920000000400001004000d2
:10327800100378001e80fb00c18920000000400078
:1032880001004000100078001000be000204200079
:103298000300200000027800810278000200780014
:1032a8008300780000016200018062006102b800ba
:1032b80014079800250798001e009000ae009000a3
:1032c800c000dd00000020001007980021079800ca
:1032d8001e009000ae0090006112b800140798001c
:1032e800250798001e019000ae01900002007000b2
:1032f80083807000008bbe001e80fb00c189200007
:103308000000400001004000100278001e80fb0011
:10331800c189200000004000010040001000780032
:103328001001be0000042000010020000000690018
:1033380081806900008abe001e80fb0000004000fa
:1033480080007800c08920000080400000017800db
:103358001e80fb000000400080007800c08920002b
:1033680000804000104078000024a2000049780046
:103378001e80fb00c18920000000400001004000c1
:10338800100178001e80fb00c18920000000400069
:103398000100400010007800104090000044b20086
:1033a800104198001e80fb00c189200000004000e9
:1033b80001004000100178001e80fb00c189200038
:1033c800000040000100400010007800904090008c
:1033d80000c4b30000c06800104198000080fa00e3
:1033e800000006000000fa000000eb00a02488009e
:1033f8000000eb00602488000000eb009044880087
:103408000080fa00000006000000fa0090448000e6
:103418000000e00016003a000000eb00a02488003d
:103428000000eb0060248800200020003025880080
:103438000000eb00402588008644a900f009200020
:1034480080248800f0092000602488009ec0a8001d
:10345800010037009404a80094c4bf0061406000d4
:103468000004e000fbff32001000200090448800b8
:103478000080fa00000006000200fa00c6c8bf007b
:103488007f406000e14f500090003a00c6c8bf007e
:1034980002c6b3008240600000c2b30080cf500073
:1034a8008a003a00cac8bf000004e00003003200e6
:1034b800cac8bf00e14f500084003a00c7c8bf0027
:1034c8000080fb00000f7800000220009e007800ba
:1034d800808f500038003200000220001e01780062
:1034e800800f510007003c001e0078000000e0003b
:1034f8000d0032009e007800e18f5000200032005d
:1035080072003700100220001e017800800f510061
:1035180055003200200220009e007800808f500065
:103528006700320069003700028f2000f00f20008a
:10353800800061008ac8bf006040600001407000e0
:103548008ae8b700c810de008bc8bf006040600082
:10355800014070008be8b7008dc8bf006040600074
:103568000034a0008de8b7008ec8bf00604060003e
:103578008ee8b7008c08a8008ce8a8005300370034
:10358800028f2000f00f2000800061008ac8bf0071
:1035980060406000014070008ae8b700c810de0093
:1035a8008bc8bf0060406000014070008be8b70026
:1035b8008ce8a80045003700ccc8bf008080fb001d
:1035c800cdc8bf000080fb004800dd00010070008e
:1035d80000017800f00f20008000610098c8bf004b
:1035e800604060000140700098e8b700c810de0035
:1035f80099c8bf00604060000140700099e8b700ba
:1036080002a42000f00f20008000610095c8bf00d0
:10361800604060000140700095e8b700c810de0007
:1036280096c8bf00604060000140700096e8b7008f
:1036380002df2100f00f2000800061009ac8bf005f
:1036480060406000014070009ae8b700c810de00d2
:103658009bc8bf0060406000014070009be8b70055
:1036680097e8a80019003700c28d2000f00f20004d
:10367800800061008ac8bf0060406000014070009f
:103688008ae8b700c810de008bc8bf006040600041
:10369800014070008be8b7008dc8bf006040600033
:1036a8007040b3008de8b7008ec8bf00604060006e
:1036b8008ee8b70010ccb3008ce8b70003003700e1
:1036c800c8c8bf00eae8b7008ce8a8000080fa0084
:1036d800000006000000fa0000b0240001002000ed
:1036e800e0468800f14688000040eb00e0e8b700bb
:1036f8000040eb00e1e8b70080c0b300e2e8b700a3
:103708000040eb00d7e8b7000040eb00d6e8b70070
:1037180051c1b30020c0b3001bfe0700d1c1b300e4
:1037280030c0b30018fe070003c4b30082a4200011
:103738008040eb0030c0b3006dfe070030478800c2
:103748000000eb00404788000080fa0000000600f7
:103758000400fa00000f7800214798000040eb00b1
:10376800d6e8b700304780000000e00006003200cd
:10377800304780009040900000c8b30000c060004f
:103788000004e00021003a003047800090407800b3
:103798002e40900080cf5000030031003047800059
:1037a80090407800214798000040eb00d6e8b70029
:1037b8000b003700d6c8bf000080fb001e01400088
:1037c800d6c8bf008080fb0080a42000614078003c
:1037d80000497800d6c8bf000040e800d6e8b70026
:1037e800618d2000914078002e40900080cf5000dd
:1037f800f0ff390003c4b30082a420008040eb002e
:1038080030c0b3003afe070030478800d6c8bf0072
:103818000080fb000080fa00000006000400fa00a7
:10382800000f7800214798009ec0a900d7c8bf00a4
:103838000004e00008003a001e007800c046880036
:103848002e409000dae8b70010c0b300dbe8b700fc
:1038580010c0b300d7e8b7009ec0a8000080fa00e7
:10386800000006000800fa00200798009ec0a90082
:10387800d7c8bf000004e000020032009ec0a800c4
:103888001f0037000040eb00204798002e009000f2
:10389800000f78002e4090000040e8002047980074
:1038a8002e409000e14f40000c0032001e007800ce
:1038b80010407800604798006e4090000004e000d7
:1038c8000200320010c0b300604798006e409000bc
:1038d8001e0fe8000004e000eeff3a002e00900002
:1038e800c04688002e409000dae8b70010c0b30048
:1038f800dbe8b70010c0b300d7e8b7009ec0a80047
:103908000080fa00000006000800fa00200798006e
:103918009ec0a900d7c8bf000004e0000200320022
:103928009ec0a8001f0037000040eb002047980009
:103938002e009000000f78002e4090000040e80014
:10394800204798002e409000e14f40000c003200c4
:103958001e00780010407800604798006e40900084
:103968000004e0000200320010c0b3006047980075
:103978006e4090001e0fe8000004e000eeff3a00e1
:103988002e009000c04688002e409000dae8b7006c
:103998000040eb00dbe8b70010c0b300d7e8b70081
:1039a8009ec0a8000080fa00000006000200fa008d
:1039b8009ec0a900404780000000e00008003200d7
:1039c800404780009040900000c8b30000c06000ed
:1039d8000004e000020032009ec0a8005e0037002c
:1039e800d7c8bf00e34f500002003a000040eb0088
:1039f800d7e8b700d7c8bf000004e00002003a00cb
:103a08009ec0a80054003700d7c8bf00e24f50003e
:103a180009003a008041eb000001eb0011c0b3003f
:103a280030c0b300b2fd07004047880030c0b30083
:103a3800d7e8b70047003700d7c8bf00e14f5000ac
:103a480044003a00a18d20009140780000c4b300e2
:103a580080cf50000300360000c4b3001047980020
:103a680002003700dac8bf0010479800a18d200077
:103a7800914078001e40900000c05000dae8b7007e
:103a880080a82000204788001e409000004f780042
:103a9800dbc8bf000004e0001a003a000b00370042
:103aa80021478000c0468000104078008048780098
:103ab800204780000000e80020478800c0468000ba
:103ac8000000e800c04688001e4fe9001e04e00020
:103ad800f3ff3a000d00370021478000c046800000
:103ae8001040780080487800204780000000e800f7
:103af80020478800c04680000000e800c0468800d3
:103b08001e4fe9001e04e000f3ff3a00dac8bf00c8
:103b18000004e00009003a009e40900000c4b30091
:103b280080cf500003003a0020c0b300d7e8b700a8
:103b38000200370030c0b300d7e8b7009e419000bc
:103b480082a8200011c0b30030c0b30068fd070090
:103b5800404788009ec0a8000080fa0000000600c8
:103b68000000fa000300070075f707000080fa005c
:103b7800000006000200fa000040eb00004f780049
:103b8800060037009e80fb00608020008080400097
:103b98000040eb00804878001e4fe800f0c3b300f7
:103ba8009e4f1000f7ff36000040eb0086e8b70094
:103bb8000040eb0087e8b7000000eb0020408800d9
:103bc8000080fa00000006000200fa00004f7800aa
:103bd8000080fa00000006000000fa000080fa00e9
:103be800000006000200fa001e4078000080fb007a
:103bf8000080fa00000006000000fa006bff0700d2
:103c08000080fa00000006000000fa000040800072
:103c18000000e00002003a00007122000040880025
:103c2800004080000000e9000040880088c4bf0010
:103c3800624060000004e00010003a0090448000f8
:103c48000000e0000d00320090448000e10f5000b9
:103c58000a00320090448000e20f50000700320052
:103c680090448000e40f500004003200904480002b
:103c7800f00f500001003200904480000080fa00ec
:103c8800000006000000fa000080fa0000000600ac
:103c98000000fa000080fa00000006000000fa00a8
:103ca8000080fa00000006000000fa000080fa0018
:103cb800000006000000fa00effd07000080fa008f
:103cc800000006000000fa000080fa00000006006c
:103cd8000000fa007ffe07000080fa0000000600de
:103ce8000000fa009444a80080702000104088006a
:103cf800104080000000e90010408800104080005b
:103d08000000e000faff3a009444a9000080fa009d
:103d1800000006000800fa00000f7800110798005c
:103d2800220798001e00780030079800200720001e
:103d3800be009000808f50002c0032002007200029
:103d4800be009000808f50000a003e003e009000a8
:103d5800e20f500019003200be009000e38f5000bf
:103d6800180032003e009000e10f500011003200b0
:103d78001f00370040072000be009000808f5000d1
:103d88001600320040072000be009000808f5000cf
:103d98000e00390050072000be009000808f5000b0
:103da8000c0032003e009000e10f40000d00320090
:103db8000f003700c6ff07000d003700c1ff0700de
:103dc8000b003700bbff070009003700b3ff0700ef
:103dd80007003700abff070005003700acff0700fe
:103de80003003700b0ff07000100370000000000a3
:0c3df800100020000080fa00000006000f
:020000040000fa
:103e04008a0800004c00000000000000000a0000c6
:103e14004000000000000000400a0000880000008c
:103e240000000000d608000022000000000000008e
:103e34000809000002000000020000000000000069
:103e4400000800008a00000000000000f8080000dc
:103e540010000000000000000a090000a00000009b
:103e640002000000010000000000000000000a0041
:103e740000000000000000000064000000000000da
:103e840000000000e8030000000000000000100033
:103e9400270000000000000000a0860001000000d0
:103ea4000000000040420f000000000000008000fd
:103eb40096980000000000000000e100f5050000f5
:103ec4000000000000ca9a003b000000000000004f
:103ed400e40b5400020000000000e80076481700dc
:103ee400000000000010a500d4e80000000000005d
:103ef400a0724e0018090000000040007a10f30080
:103f04005a0000000080c600a47e8d00030000005b
:103f140000c16f00f2862300000000008a5d780073
:103f24004563010000006400a7b3b600e00d000083
:103f340000e889000423c7008a000000aa090000e1
:103f44002a00000002000000286e75006c6c290035
:103f5400003031003233340035363700383941000f
:103f640042434400454600003031320033343500ca
:103f7400363738003961620063646500660000000a
:103f8400d40900002600000002000000d609fc004d
:103f940009000000fc090900000000000200fa000a
:103fa40009000000fa0906000201000000000000f8
:103fb40000000000000006000202000000000000f3
:103fc400fa0900000600000000000000c80a000012
:103fd40002000000020000000100000000000000d8
:020000040000fa
:103fe4003600f800809fbe00821f78000000fa00af
:103ff40021e3a900f1478000001880000080400000
:10400400f0478800014880001018800000804000bc
:10401400004888001148800020188000008040007b
:1040240010488800204880000000e80020488800ec
:1040340020488000f00f500017003a00f04780003d
:1040440022488000110009000280d800c04788007f
:104054000048800022488000110009000280d80036
:10406400d0478800104880002248800011000900d1
:104074000280d800e04788000000eb00f047880089
:104084000000eb00004888000000eb0010488800a6
:104094000000eb00204888000040eb0006e9b70070
:1040a40085a0a9000080fa004f0178004f00be00ef
:1040b4003600f900004006000000fa0021e3a900e0
:1040c40020032000801988001132200091407800dc
:1040d400c0cfb30000c0600021e3b700013220006c
:1040e4009140780000ceb30000c0700020e3b70018
:1040f4002043a800213220009140780030ccb30046
:1041040000c060004041b30022e3b7002223a900ad
:104114002203a9002343a80023c3bf007f406000fb
:1041240023e3b70025e3a90025c3bf00f041b30092
:1041340025e3b700f0c3b30024e3b70028e3a900e4
:10414400813220009140780000ceb30000c06000ae
:1041540028e3b70021e3a90085a0a90095a0a80041
:104164000080fa00000006003400f800881f780080
:1041740008002000a80188004f0478000000fa001d
:1041840021e3a8008460a9000080fa003400f9004b
:10419400004006000000fa000000eb002008880040
:1041a4000000eb0000088800803e20001008880012
:1041b4004110200091407800f0ccb30000c06000b2
:1041c40004e1b7000421a9000441a90005e1a80005
:1041d4008460a9009460a8000080fa000000060032
:1041e400809fbe00821f78003400f8000000200089
:1041f400a00188000000fa00c4c2bf006140600052
:104204000004a2006140600061416000412c200074
:1042140091407800e0cfb30000c06000024070001d
:10422400c4e2b70084e0a9000080fa003400f90079
:104234004f0178004f00be00004006000000fa0065
:104244000000eb00800888000000eb0030088800c4
:104254000080eb0060088800011120009140780084
:1042640000c3b30000c0700010e1b7001021a90022
:1042740011e1a80084e0a90094e0a8000080fa00fd
:10428400000006002000fa00e0ff2f00001688005e
:10429400f0ff270040168800d0fc2f00601988002a
:1042a4000000eb00201688000000eb006016880078
:1042b4002cfe070055fc0700260007007eff0700c0
:1042c400b4ff0700ddff07000000370090448000c2
:1042d400e70f50001900360088c4bf006240600038
:1042e4000004e00015003a0090448000ff0f5000e5
:1042f4001200360088c4bf00624060000004e00081
:104304000e003a00e0478000d1478000c247800099
:10431400801f7800811f7800821f780020c9280040
:10432400801f78000e007800c2f10700e88757006c
:104334000e0078004cfd07009dfd070006c9bf0074
:104344000004e000e1ff3a0010c0b30006e9b70042
:10435400deff37000000fa00217420006204200010
:1043640073052000824878008348780042c7a9007a
:104374002174200062042000730520008248780024
:104384008348780042c7a8000080fa0000000600b5
:00000001FF
